:100000001DC037C036C035C04AC033C032C031C051
:1000100030C02FC02EC02DC02CC02BC02AC029C07C
:1000200029C027C026C025C024C023C022C021C0AB
:1000300020C01FC0030303022C0C010611241FBEA5
:10004000CFEFD2E0DEBFCDBF11E0A0E0B1E0E8EE3F
:10005000F4E002C005900D92AA30B107D9F711E083
:10006000AAE0B1E001C01D92A531B107E1F7FDD0D2
:1000700039C2C6CF1F920F920FB60F9211248F93E1
:1000800080910C01882329F080910C01815080938C
:100090000C018F910F900FBE0F901F9018951F921B
:1000A0000F920FB60F921124319905C01BB815B8E5
:1000B0000000000088950F900FBE0F901F901895BC
:1000C0000F931F9380910C01882309F47BC081E07A
:1000D00080930F0180E81ED184E719D18DE317D1F9
:1000E00080911001882321F082E814D18BE20FD196
:1000F00083E810D180911001843620F064E6D2D1DB
:10010000805D05D18091100164E6CCD1892F6AE031
:10011000C9D1805DFCD0809110016AE0C3D1892FE4
:10012000805DF5D08EE2F3D0809114016AE0BAD1FF
:10013000892F805DECD080ED97E028EC30E0F9016C
:100140003197F1F70197D9F780ECE4D086E5DFD05D
:100150008DE3DDD0809111019091120168EE73E082
:10016000ADD1862F805DD3D08EE2D1D080911101A8
:100170009091120168EE73E0A1D164E670E09ED127
:10018000862F805DC4D0809111019091120164E6A8
:1001900070E094D16AE070E091D1862F805DB7D095
:1001A00080911101909112016AE070E087D1805D29
:1001B000AED080E197E228EC30E0F9013197F1F719
:1001C0000197D9F780910F018823A1F481E0A2D093
:1001D00000E315E7C8010197F1F780E89BD080E0C4
:1001E00091E09BD080EC96D083E091E096D0C8015E
:1001F0000197F1F71F910F9108950F931F93CF93DC
:10020000DF9333EC3AB982E88BB995E093BF22E0F3
:100210002093680090936C0081E080936E0098B901
:1002200081E884BD25BD84EB87BD8AB186608AB92B
:1002300030937C0087E880937A00AAD08FE384B95A
:10024000C4E3D0E000ED14E8C8010197F1F7FE0126
:10025000849160D02196F0E0CC33DF07A9F7789441
:10026000DF91CF911F910F910895C7DFC9E8D0E0CA
:1002700010920F01D0D09C0190930E0180930D013C
:10028000885E87FD80E087BD2C9FC0012D9F900D6B
:100290003C9F900D112423E0969587952A95E1F7D0
:1002A0009093120180931101DED09C0190930B0179
:1002B00080930A0162E370E001D180931401C901C7
:1002C00062E370E0FBD0615160931001F9DED0CFA2
:1002D0002D9A85E08A95F1F72D988AE68A95F1F7AF
:1002E00008951F93182F85B1807F85B995B1812F0F
:1002F00082958F70892B85B9EBDF85B1807F85B9B9
:1003000085B11F70812B85B9E3DF1F9108952C9A69
:10031000E8DF08952C98E5DF08951F93CF93DF93CE
:10032000EC0110E002C0F3DF1F5FFE01E10FF11DE1
:1003300080818823C1F7DF91CF911F9108958FEFBE
:1003400080930C0184EA8093BC0080910C01882387
:1003500021F08091BC0087FFF8CF089584E9809355
:10036000BC0080910C01882321F08091BC0084FDA9
:10037000F8CF08958093BB0084E88093BC008091FF
:100380000C01882321F08091BC0087FFF8CF0895ED
:1003900080E28093B80008950F931F93082F162FC3
:1003A000CEDF1093BB0084E88093BC0080910C01E9
:1003B000882321F08091BC0087FFF8CF0093BB0019
:1003C00084E88093BC0080910C01882321F0809107
:1003D000BC0087FFF8CFC2DF1F910F91089584EC16
:1003E0008093BC0080910C01882321F08091BC0097
:1003F00087FFF8CF8091BB00089584E88093BC000C
:1004000080910C01882321F08091BC0087FFF8CFF8
:100410008091BB000895589A87EC80937A00809170
:100420007A0084FFFCCF10927A00589820917800CF
:1004300030E040917900942F80E0282B392BC901BE
:100440000895833E910510F480E008959C01225E9A
:1004500030402232310510F084E60895C901880F3A
:10046000991F820F0895FF920F931F9368DF84EB0B
:1004700081DF87E07FDF63DF85EB7CDFB0DF082F84
:10048000AEDFF82EBADF6ADF9F2D80E010E0082B88
:10049000192B10930B0100930A01C8011F910F91B2
:1004A000FF900895991B79E004C0991F961708F0F2
:1004B000961B881F7A95C9F780950895AA1BBB1BC8
:1004C00051E107C0AA1FBB1FA617B70710F0A61B54
:1004D000B70B881F991F5A95A9F780959095BC0175
:0804E000CD010895F894FFCF4F
:0A04E8004E4F0053454E534F520093
:00000001FF
