:1000000019C020C01FC01EC01DC01CC01BC01AC00C
:1000100019C018C017C016C015C014C013C012C034
:1000200011C010C00FC00EC00DC00CC00BC00AC064
:1000300009C008C011241FBECFEFD2E0DEBFCDBF84
:1000400002D0CFC0DDCF0F931F93CF93DF936FD03C
:1000500080917A00856880937A0080917C00836C1F
:1000600080937C00C8ECD0E080917A00806480931B
:100070007A0080917A0084FFFCCF00917800109183
:10008000790083E0169507958A95E1F780E060E0B6
:1000900079D0C80168EE73E090D0862F805D41D0A2
:1000A000C80168EE73E089D064E670E086D0862FE0
:1000B000805D37D0C80164E670E07FD06AE070E010
:1000C0007CD0862F805D2DD0C8016AE070E075D0AD
:1000D000805D27D088E893E1FE013197F1F7019721
:1000E000D9F7C2CF289A85E08A95F1F728988AE651
:1000F0008A95F1F708951F93182F8BB18F708BB9E4
:100100009BB1812F807F892B8BB9ECDF8BB18F70F6
:100110008BB98BB11295107F812B8BB9E3DF1F91C7
:100120000895299AE8DF08952998E5DF08958BB1AD
:100130008F708BB98AB1806F8AB984B1836084B9BA
:10014000299880E395E70197F1F783E0EDDF80E4FC
:100150009FE10197F1F783E0E7DF88EC90E00197FA
:10016000F1F783E0E1DF82E0DFDF8CE2DDDF8CE0CE
:10017000DBDF81E0D9DF80E197E20197F1F786E0EC
:10018000D3DF08956295660F660F607C680F862F37
:100190008068CADF08951F93CF93DF93EC0110E0CE
:1001A00002C0BFDF1F5FFE01E10FF11D80818823C8
:1001B000C1F7DF91CF911F910895AA1BBB1B51E19D
:1001C00007C0AA1FBB1FA617B70710F0A61BB70BC7
:1001D000881F991F5A95A9F780959095BC01CD016C
:0601E0000895F894FFCF22
:00000001FF
