:100000000C942A000C9449000C9447000C9447006F
:100010000C9447000C9447000C9447000C94470044
:100020000C9447000C945C000C9447000C9447001F
:100030000C9447000C9447000C9447000C94470024
:100040000C9447000C9447000C9447000C94470014
:100050000C94470011241FBECFE5D4E0DEBFCDBF16
:1000600010E0A0E6B0E0EEEEF6E002C005900D92E2
:10007000A237B107D9F710E0A2E7B0E001C01D92A6
:10008000A437B107E1F70E942A010C9475030C9480
:1000900000001F920F920FB60F9211248F931092AF
:1000A00072008FEF85BB82B38E6F82BB8F910F90F2
:1000B0000FBE0F901F9018951F920F920FB60F92C0
:1000C00011248F9380917000882359F48CE38093DE
:1000D0007000109272008FEF85BB82B38E6F82BB6F
:1000E00003C08150809370008F910F900FBE0F90CE
:1000F0001F9018952F923F924F925F926F927F922E
:100100008F929F92AF92BF92CF92DF92EF92FF9227
:100110000F931F93DF93CF9300D0CDB7DEB7AA27FD
:1001200097FDA095BA2FBC01CD010E945E021B0174
:100130002C012BEA3AEA4AE250E40E9412033B0106
:100140004C010E94300269831A8282B391E08927B0
:1001500082BBC401B30120E030E040E85FE30E94CD
:10016000C40187FD50C0C401B30120E030E04FE777
:1001700053E40E940E03181614F0898145C0C20191
:10018000B10120E030E04AE754E40E94C8015B017D
:100190006C0120E030E04AEF54E40E9412037B013E
:1001A0008C0120E030E040E85FE30E94C401882336
:1001B0001CF461E070E023C0C801B70120E03FEF0C
:1001C0004FE757E40E940E031816ACF4C601B501C0
:1001D00020E030E040E251E40E9412030E9430022D
:1001E00006C088EC90E00197F1F76150704061150E
:1001F0007105B9F70BC0C801B7010E943002CB01ED
:100200000197F1F703C081E08A95F1F7EA81EF5F8A
:10021000EA83E63909F099CF80ED97E028EC30E0E9
:10022000F9013197F1F70197D9F70F900F90CF911E
:10023000DF911F910F91FF90EF90DF90CF90BF90D3
:10024000AF909F908F907F906F905F904F903F9076
:100250002F9008951F93CF93DF9382E085BF80E4B2
:100260008BBF85E083BF8FEF84BB85BB8BBB88BB17
:1002700081E081BB86E082BB40E050E0A1E0B0E0DD
:1002800068EC70E025B3CD01042E02C0880F991FE1
:100290000A94E2F78095822385BB88E893E1FB010D
:1002A0003197F1F70197D9F74F5F5F4F483051050C
:1002B00049F788E893E128EC30E0F9013197F1F74C
:1002C0000197D9F7789411E0C8ECD0E090917000D4
:1002D000819905C089B7816089BF9CE303C089B754
:1002E0008E7F89BF80917200882391F79093700070
:1002F00089B3809520E030E0482F50E0CA01022EFB
:1003000002C0959587950A94E2F780FF1DC0F90118
:10031000E05AFF4F808185BB109372002223B1F613
:100320008CE697E00E947A0084EA96E00E947A00C8
:100330008CE697E00E947A0088E893E1FE0131970D
:10034000F1F70197D9F7C2CF2F5F3F4F2830310522
:10035000A9F686B38095E0E0F0E0282F30E0C901EF
:100360000E2E02C0959587950A94E2F780FF07C08C
:10037000E05AFF4F808585BB10937200A7CF31965E
:10038000E830F10561F7A2CFD4D008F481E00895F8
:100390000CD00AC102D140F0F9D030F021F45F3F17
:1003A00019F0EBC0511134C1EEC00FD198F399236D
:1003B000C9F35523B1F3951B550BBB27AA27621729
:1003C0007307840738F09F5F5F4F220F331F441F6E
:1003D000AA1FA9F333D00E2E3AF0E0E830D09150A6
:1003E0005040E695001CCAF729D0FE2F27D0660F93
:1003F000771F881FBB1F261737074807AB07B0E8D2
:1004000009F0BB0B802DBF01FF2793585F4F2AF0E7
:100410009E3F510568F0B1C0FBC05F3FECF3983ED2
:10042000DCF3869577956795B795F7959F5FC9F744
:10043000880F911D9695879597F90895E1E0660FCD
:10044000771F881FBB1F621773078407BA0720F046
:10045000621B730B840BBA0BEE1F88F7E0950895AF
:10046000BCD088F09F5790F0B92F9927B751A0F0D2
:10047000D1F0660F771F881F991F1AF0BA95C9F738
:1004800012C0B13081F0C3D0B1E00895C0C0672F71
:10049000782F8827B85F39F0B93FCCF386957795E8
:1004A0006795B395D9F73EF49095809570956195D1
:1004B0007F4F8F4F9F4F0895E89409C097FB3EF4FC
:1004C00090958095709561957F4F8F4F9F4F9923A1
:1004D000A9F0F92F96E9BB279395F695879577951F
:1004E0006795B795F111F8CFFAF4BB0F11F460FFDF
:1004F0001BC06F5F7F4F8F4F9F4F16C0882311F037
:1005000096E911C0772321F09EE8872F762F05C04A
:10051000662371F096E8862F70E060E02AF09A95E5
:10052000660F771F881FDAF7880F9695879597F9DA
:100530000895990F0008550FAA0BE0E8FEEF161674
:100540001706E807F907C0F012161306E407F507C7
:1005500098F0621B730B840B950B39F40A2661F03B
:10056000232B242B252B21F408950A2609F4A140DE
:10057000A6958FEF811D811D089597F99F6780E8EB
:1005800070E060E008959FEF80EC089500240A94E5
:100590001616170618060906089500240A9412165E
:1005A0001306140605060895092E0394000C11F491
:1005B000882352F0BB0F40F4BF2B11F460FF04C03E
:1005C0006F5F7F4F8F4F9F4F089557FD9058440F97
:1005D000551F59F05F3F71F04795880F97FB991FA2
:1005E00061F09F3F79F0879508951216130614065F
:1005F000551FF2CF4695F1DF08C0161617061806EC
:10060000991FF1CF86957105610508940895E894C6
:10061000BB2766277727CB0197F908958ADF08F46F
:100620008FEF08950BD0C0CFB1DF28F0B6DF18F000
:10063000952309F0A2CFA7CF1124EACFC6DFA0F3FC
:10064000959FD1F3950F50E0551F629FF001729F67
:10065000BB27F00DB11D639FAA27F00DB11DAA1F86
:10066000649F6627B00DA11D661F829F2227B00DD3
:10067000A11D621F739FB00DA11D621F839FA00D5E
:10068000611D221F749F3327A00D611D231F849FAE
:10069000600D211D822F762F6A2F11249F57504005
:1006A0008AF0E1F088234AF0EE0FFF1FBB1F661FA0
:1006B000771F881F91505040A9F79E3F510570F059
:1006C0005CCFA6CF5F3FECF3983EDCF38695779541
:1006D0006795B795F795E7959F5FC1F7FE2B880F54
:0E06E000911D9695879597F90895F894FFCF90
:1006EE00C0F9A4B0999282F8809040792430191202
:0206FE003C00BE
:00000001FF
