:1000000019C033C032C07AC08DC02FC02EC02DC0E1
:100010002CC02BC02AC029C028C052C026C025C071
:1000200025C023C022C021C020C01FC01EC01DC0CB
:100030001CC01BC011241FBECFEFD2E0DEBFCDBF5E
:1000400011E0A0E0B1E0E0E9F3E002C005900D921C
:10005000AA30B107D9F711E0AAE0B1E001C01D92C2
:10006000A031B107E1F7C0D091C1CACF1F920F9262
:100070000FB60F9211248F9380910F0181508093BE
:100080000F018F5FB9F48DE380930F01F894809195
:100090000E01815080930E018F5F41F4449885E3F7
:1000A0008A95F1F7449A82E080930E01789482E079
:1000B00080930D018F910F900FBE0F901F90189598
:1000C0001F920F920FB60F9211242F938F939F932D
:1000D00020910D01213051F4189B08C087EE93E068
:1000E00090930B0180930A0120930C019F918F91B3
:1000F0002F910F900FBE0F901F9018951F920F9287
:100100000FB60F921124189908C010920B0110928B
:100110000A0110920C0110920D010F900FBE0F906A
:100120001F9018951F920F920FB60F9211242F93C4
:100130005F936F937F938F939F93AF93BF93339905
:1001400046C080910D018823B9F1189B35C080917C
:100150000D01823059F410928500109284001092A3
:100160000B0110920A0110920C011FC080918400B3
:100170009091850064E170E0F5D070930B0160937D
:100180000A0180910A0190910B01885E934020F44E
:1001900080910C01882349F087EE93E090930B0146
:1001A00080930A0181E080930C0180910D018150C0
:1001B00080930D0180910D01189909C080910A0169
:1001C00090910B01019690930B0180930A01BF91CE
:1001D000AF919F918F917F916F915F912F910F9030
:1001E0000FBE0F901F9018958FEF8AB98BB987E1DA
:1001F00087B980E188B92098289A80916E00816043
:1002000080936E0080916F00816080936F0085E025
:1002100085BD82E080938100809168008360809337
:10022000680080916B00816080936B0080916C000E
:10023000886180936C00189950C088B1887F88B914
:100240002AE040E951E03FEF2150E22FF0E0E0509A
:10025000FF4F80818BB988EB9BE0FA013197F1F772
:100260000197D9F78BB13BB988EB9BE0FA01319745
:10027000F1F70197D9F7222339F788B1876088B958
:100280008BB18B7E8BB9429880ED97E020E931E00D
:10029000F9013197F1F70197D9F7429A419880ED2A
:1002A00097E020E931E0F9013197F1F70197D9F7AB
:1002B000419A409880ED97E020E931E0F9013197CB
:1002C000F1F70197D9F7409A88EB9BE020E931E0FC
:1002D000F9013197F1F70197D9F7789420E23EE4DC
:1002E00080910A0190910B0168EE73E03BD064E6C7
:1002F00070E038D0FB01E050FF4F80818BB99BB19B
:1003000080910C01880F880F809589238BB94298C2
:10031000C9010197F1F7429A80910A0190910B016E
:1003200064E670E01FD06AE070E01CD0FB01E05092
:10033000FF4F80818BB94198C9010197F1F7419A2C
:1003400080910A0190910B016AE070E00BD0FC01F2
:10035000E050FF4F80818BB94098C9010197F1F7B8
:10036000409ABECFAA1BBB1B51E107C0AA1FBB1FEF
:10037000A617B70710F0A61BB70B881F991F5A9531
:10038000A9F780959095BC01CD010895F894FFCF11
:0A03900014BE4C2CA62505BC042465
:00000001FF
