:100000001DC037C0D2C135C034C02BC132C031C0D1
:1000100030C02FC02EC02DC02CC02BC02AC029C07C
:100020000FC227C026C025C024C023C022C021C0C3
:1000300020C01FC0080104070104070011241FBECF
:10004000CFEFD2E0DEBFCDBF11E0A0E0B1E0E2E053
:10005000F8E002C005900D92A035B107D9F711E084
:10006000A0E5B1E001C01D92AA36B107E1F767D162
:10007000C6C3C6CF88EF93E090935A01809359018D
:1000800081E08093510188E893E128EC30E0F901A8
:100090003197F1F70197D9F708958FE060E0EFD23B
:1000A00088E893E128EC30E0F9013197F1F7019706
:1000B000D9F7109251010895DC019C91E091520111
:1000C000F0E0E050FF4F8081981718F4E92FEF5FC0
:1000D00006C0E0915201F0E0E95FFE4FE081EC9351
:1000E0008E2F90E08F7090700A971CF0E07FE05F99
:1000F000EC93862F6C91C3D280915B01882321F40D
:1001000081E080934D01089581E08093500108952E
:10011000809152018430A1F0853028F4813041F083
:100120008230D9F409C0853079F08630B1F411C03D
:100130008EE591E062E00BC08DE591E061E007C0E3
:1001400080E691E064E003C081E691E065E0B4DF21
:10015000089582E691E066E0AFDF08958091520154
:10016000823041F0843059F0813069F485E691E0C5
:1001700069E003C084E691E068E09EDF089587E6C9
:1001800091E06AE099DF0895E0915201F0E0EC5CC3
:10019000FF4F94918091520160E0843008F061E05B
:1001A000892F28D208950F931F9303E211E083E66D
:1001B00091E0B80104D38091290180934E01809190
:1001C0002A0180934F0180E060E014D2C8011BD265
:1001D00080E061E00FD2C8010C9615D21F910F91FB
:1001E00008950F931F9310924D010EE311E080913B
:1001F0003E0180934E0180913F0180934F0180E04A
:1002000060E0F8D1C8010697FED180E061E0F2D14C
:10021000C8010696F8D11F910F9108950F931F936F
:10022000F8948CE591E0ADD278940EE011E08CE585
:1002300091E0B801C4D28091140180934E01809165
:10024000150180934F0180E060E0D4D1C801DBD17B
:1002500080E061E0CFD1C8010C96D5D11F910F91FC
:1002600008951F920F920FB60F9211242F933F9370
:100270004F935F936F937F938F939F93AF93BF93AE
:10028000EF93FF9388EF93E0909358018093570189
:1002900080915501882329F44A9903C08FE7809300
:1002A000550180915101882341F08091590190912D
:1002B0005A01892B11F0499BF0DE8091540188236B
:1002C00069F149990CC080915B0191E08927809385
:1002D0005B0160915B0180E08DD1109252014A99DF
:1002E00013C080915201863010F080E003C08091ED
:1002F00052018F5F8093520180915B01882311F43A
:100300008DDF01C050DF40DF489908C080915B015C
:10031000882311F4FDDE01C021DF36DFFF91EF916C
:10032000BF91AF919F918F917F916F915F914F910D
:100330003F912F910F900FBE0F901F901895A89589
:1003400028E288E190E00FB6F894A89580936000C9
:100350000FBE2093600023D1BAD18FE060E08FD12F
:1003600088E062E08CD189E060E089D180E065E5D9
:1003700086D181E061E083D182E060E080D1A89500
:1003800080914D01882341F08FE0C2D180FD72DE63
:1003900045DF10924D01F8DE80915001882379F3FA
:1003A00002DF10925001F0DEEACF1F920F920FB6DB
:1003B0000F9211242F933F934F935F936F937F93EB
:1003C0008F939F93AF93BF93EF93FF9380915301CC
:1003D000882329F580914F018F5F80934F01809191
:1003E0004F018A3398F090E390934F0180914E0132
:1003F0008F5F80934E0180914E01863338F0909349
:100400004F0190934E0181E080934D0186E060E0C2
:10041000F1D080914E01BDD080914F01BAD0FF91B3
:10042000EF91BF91AF919F918F917F916F915F916C
:100430004F913F912F910F900FBE0F901F901895E5
:100440001F920F920FB60F9211242F933F934F9349
:100450005F936F937F938F939F93AF93BF93EF932C
:10046000FF93809153018823D9F48091510188230F
:1004700099F08091590190915A01892B69F04B9B19
:100480000EC0409A8091590190915A010197909322
:100490005A018093590104C08FE060E0F0D0409889
:1004A0008091570190915801892BC1F0809157019B
:1004B0009091580101979093580180935701809132
:1004C000570190915801892B49F410925301809162
:1004D0005301882319F4A2DE8CE05ED0809155018F
:1004E000882339F180915501815080935501809185
:1004F00055018823F1F44A991CC081E0809353018F
:10050000909154019827909354018091540188232D
:1005100039F067DE8DE040D080E060E06BD009C04C
:100520007DDE8CE039D01092530110925B01109265
:100530005201FF91EF91BF91AF919F918F917F9168
:100540006F915F914F913F912F910F900FBE0F9040
:100550001F901895289A85E08A95F1F728988AE6E1
:100560008A95F1F708951F93182F8BB18F708BB96F
:100570009BB1812F807F892B8BB9ECDF8BB18F7082
:100580008BB98BB11295107F812B8BB9E3DF1F9153
:100590000895299AE8DF08952998E5DF08958BB139
:1005A0008F708BB98AB1806F8AB984B1836084B946
:1005B000299880E395E70197F1F783E0EDDF80E488
:1005C0009FE10197F1F783E0E7DF88EC90E0019786
:1005D000F1F783E0E1DF82E0DFDF8CE2DDDF8CE05A
:1005E000DBDF81E0D9DF80E197E20197F1F786E078
:1005F000D3DF08956295660F660F607C680F862FC3
:100600008068CADF08951F93CF93DF93EC0110E059
:1006100002C0BFDF1F5FFE01E10FF11D8081882353
:10062000C1F7DF91CF911F910895982F84EA8093AD
:10063000BC008091BC0087FFFCCF6093BB0084E8C6
:100640008093BC008091BC0087FFFCCF9093BB00DF
:1006500084E88093BC008091BC0087FFFCCF84E9D4
:100660008093BC0008958091BC00846C8093BC0092
:100670008091BC0087FFFCCF8091BB000895982F2C
:1006800084EA8093BC008091BC0087FFFCCF80EDA2
:100690008093BB0084E88093BC008091BC0087FFFE
:1006A000FCCF9093BB0084E88093BC008091BC0099
:1006B00087FFFCCF6093BB0084E88093BC008091EF
:1006C000BC0087FFFCCF84E98093BC0008958AB109
:1006D0008AB98BB18F608BB987B1896087B98EE099
:1006E00060E0CDDF82E08DBB8CE08093690081E02B
:1006F00080936E0084E085BDE8E6F0E08081846050
:100700008083EDE6F0E080818760808378940895AF
:10071000982F84EA8093BC008091BC0087FFFCCFB7
:1007200080ED8093BB0084E88093BC008091BC0086
:1007300087FFFCCF9093BB0084E88093BC0080913E
:10074000BC0087FFFCCF84EA8093BC008091BC0092
:1007500087FFFCCF81ED8093BB0084E88093BC00D1
:100760008091BC0087FFFCCF84E88093BC0080911F
:10077000BC0087FFFCCF84E98093BC008091BB0064
:1007800008951F93CF93DF93EC0110E0812FC0DF1A
:1007900089931F5F1730D1F7DF91CF911F91089593
:1007A0001F93CF93DF93EC0110E06991812F67DFF6
:1007B0001F5F1730D1F7DF91CF911F910895CF932D
:1007C000DF93FB01EC01DB0190E0888182958F7063
:1007D000805D8C9389918F70805D11968C931197B9
:1007E0009F5F1396973089F79081868180839683E7
:1007F0009181878181839783DF91CF910895F894C8
:02080000FFCF28
:10080200002359003112400000010001011630306E
:100812003A30303A30300030300030302F30302F24
:1008220030300030303A30303A3030003030003042
:10083200302F30302F303000312954696D6520203F
:10084200003030003229416C61726D20000130307D
:00000001FF
